:100000000C945D000C9485000C9485000C94850084
:100010000C9485000C9485000C9485000C9485004C
:100020000C9485000C9485000C9485000C9485003C
:100030000C9485000C9485000C9485000C9485002C
:100040000C948D1F0C9485000C94FD1F0C94D71FED
:100050000C9485000C9485000C9485000C9485000C
:100060000C9485000C94850000000008000201003B
:100070000003040700000000000000000000000072
:10008000250028002B0000000000240027002A0083
:10009000040404040404040402020202020203032E
:1000A0000303030301020408102040800102040836
:1000B00010200102040810207A2011241FBECFEF67
:1000C000D8E0DEBFCDBF12E0A0E0B1E0E2E5FFE4A2
:1000D00002C005900D92A031B107D9F726E0A0E14A
:1000E000B2E001C01D92A934B207E1F710E0CDE5FE
:1000F000D0E004C02197FE010E94A825CC35D1078D
:10010000C9F70E940A210C94A7270C94000090E0E4
:10011000FC01EC55FF4F249180579F4FFC018491C7
:10012000882399F090E0880F991FFC01EA57FF4F50
:10013000A591B491FC01E458FF4F859194918FB73C
:10014000F894EC91E22BEC938FBF089590E0FC01C2
:10015000E859FF4F2491FC01EC55FF4F3491FC010D
:10016000E057FF4FE491EE23C9F0222339F023300A
:1001700001F1A8F4213019F1223029F1F0E0EE0F5D
:10018000FF1FE458FF4FA591B4918FB7F894EC91FD
:10019000611126C030953E233C938FBF08952730D0
:1001A000A9F02830C9F0243049F7809180008F7D74
:1001B00003C0809180008F7780938000DFCF84B56B
:1001C0008F7784BDDBCF84B58F7DFBCF8091B0006E
:1001D0008F778093B000D2CF8091B0008F7DF9CF20
:1001E0003E2BDACF3FB7F8948091E4029091E5027C
:1001F000A091E602B091E70226B5A89B05C02F3F6B
:1002000019F00196A11DB11D3FBFBA2FA92F982F3C
:100210008827BC01CD01620F711D811D911D42E037
:10022000660F771F881F991F4A95D1F708958F92FF
:100230009F92AF92BF92CF92DF92EF92FF924B01CB
:100240005C010E94F2006B017C010E94F2006C19BB
:100250007D098E099F09683E734081059105A8F3C9
:1002600021E0821A9108A108B10888EEC80E83E047
:10027000D81EE11CF11C81149104A104B10429F7DA
:10028000FF90EF90DF90CF90BF90AF909F908F90B6
:1002900008952FB7F8946091E0027091E102809187
:1002A000E2029091E3022FBF0895AF92BF92CF92E6
:1002B000DF92EF92FF920F931F93CF93DF936C0126
:1002C0007B018B01040F151FEB015E01AE18BF0807
:1002D000C017D10759F06991D601ED91FC910190B9
:1002E000F081E02DC6010995892B79F7C501DF91D1
:1002F000CF911F910F91FF90EF90DF90CF90BF9023
:10030000AF900895FC01538D448D252F30E0842F4C
:1003100090E0821B930B541710F0CF96089501972D
:100320000895FC01918D828D981761F0A28DAE0F1A
:10033000BF2FB11D5D968C91928D9F5F9F73928FA1
:1003400090E008958FEF9FEF0895FC01918D828DCD
:10035000981731F0828DE80FF11D858D90E008959A
:100360008FEF9FEF0895FC01918D228D892F90E0F2
:10037000805C9F4F821B91098F739927089588E1B4
:1003800095E00E94B30121E0892B09F420E0822F3F
:10039000089580E090E0892B29F00E94BF0181112F
:1003A0000C9400000895FC01A48DA80FB92FB11D75
:1003B000A35ABF4F2C91848D90E001968F7399279B
:1003C000848FA689B7892C93A089B1898C91837079
:1003D00080648C93938D848D981306C00288F38972
:1003E000E02D80818F7D80830895EF92FF920F939F
:1003F0001F93CF93DF93EC0181E0888F9B8D8C8DD1
:1004000098131AC0E889F989808185FF15C09FB7C4
:10041000F894EE89FF896083E889F9898081837087
:10042000806480839FBF81E090E0DF91CF911F9136
:100430000F91FF90EF900895F62E0B8D10E00F5F57
:100440001F4F0F731127E02E8C8D8E110CC00FB62D
:1004500007FCFACFE889F989808185FFF5CFCE01C5
:100460000E94D301F1CFEB8DEC0FFD2FF11DE35A6C
:10047000FF4FF0829FB7F8940B8FEA89FB89808148
:100480008062CFCFCF93DF93EC01888D8823B9F0C2
:10049000AA89BB89E889F9898C9185FD03C080818F
:1004A00086FD0DC00FB607FCF7CF8C9185FFF2CF0C
:1004B000808185FFEDCFCE010E94D301E9CFDF918E
:1004C000CF9108958823E9F0ACEFB3E025E01496CE
:1004D0009C91149789130DC095E0899FF001112418
:1004E000E450FC4F848114968C9313821282148200
:1004F0000895992331F0929FD0011124A450BC4F4C
:10050000E6CF08958823A1F090910D05992381F0FD
:100510008F3F29F48091090590910A05089595E08F
:10052000899FF0011124E450FC4F8281938108954A
:1005300090E080E008958EBD00000DB407FEFDCF71
:100540008EB508951F93CF93DF93182FC62FD42F06
:1005500060E08AE00E94A6008C2F8F71812B0E94A0
:100560009B028D2F0E949B0261E08AE0DF91CF9178
:100570001F910C94A600CF93DF93D82FD076909143
:1005800000019D17A1F0C82F43E06FE180EA0E94AF
:10059000A2024C2F50E085E0559547958A95E1F7EA
:1005A00043706FE180E80E94A202D0930001DF91C6
:1005B000CF9108951F93CF93DF93C82F162FD72F76
:1005C0000E94BB02412F6C2F80E40E94A20261E0D6
:1005D0006C0F4D2F80E4DF91CF911F910C94A202FC
:1005E000EF92FF920F931F93CF93DF938B017A01CA
:1005F0008F3F59F095E0899FE0011124C450DC4FF2
:1006000068817981600F711F0FC06091070570913B
:100610000805600F711FC7E0D5E0611588E0780715
:1006200078F37850C7E0D5E080E00E94DA028A8152
:100630009B81801B910BE816F90608F4C701DF9136
:10064000CF911F910F91FF90EF900895EF92FF923D
:100650000F931F93CF93DF93EB0170E060E00E9454
:10066000F0028C0160E08AE00E94A6008AE30E940A
:100670009B027E01E00EF11EEC16FD0629F080E0E3
:100680000E949B028993F8CF61E08AE00E94A60055
:10069000C801DF91CF911F910F91FF90EF900895C6
:1006A00060910505709106056115710529F061508D
:1006B00071098CE00C94DA026FEF77E0FACFCF93F8
:1006C000DF93C82FD62F0E94BB024D2F6C2F80E4E2
:1006D000DF91CF910C94A202CF93DF93D82FC62F36
:1006E00060E08AE00E94A6008C2F8F718D2B0E9403
:1006F0009B02C7FF03C080E00E949B0280E00E9433
:100700009B02C82F61E08AE00E94A6008C2FDF9137
:10071000CF910895CF93C82F0E94BB026C2F80E029
:10072000CF910C946C03CF93DF93EB01682F84ED92
:100730000E945F03BE0186ED0E94DA02CFE0D0E0A6
:100740008AEE0E948A0380FF08C06AE070E080E0C1
:1007500090E00E941701219799F7DF91CF910895BA
:10076000CF93C62FBC0182E00E94DA0260E08AE0EB
:100770000E94A6008AE70E949B028C2F0E949B0287
:1007800061E08AE0CF910C94A600CF93BC0180E099
:100790000E94DA0260E08AE00E94A6008AE30E94DA
:1007A0009B0280E00E949B02C82F61E08AE00E94C9
:1007B000A6008C2FCF910895CF92DF92EF92FF92F7
:1007C0000F931F93CF93DF936C018B014130510541
:1007D00079F4CB010E94C503682FC601DF91CF9148
:1007E0001F910F91FF90EF90DF90CF900C94B0038A
:1007F000EA01C60FD71F7E0181E0E81AF10880E107
:100800000E94DA02B60184E10E94DA020115184062
:1008100048F4E11488E0F80628F07E0181E0E81A47
:1008200088E0F80AB70182E10E94DA0240E16FE154
:1008300080EA0E94A20240E26FE180E80E94A202E8
:100840006FE180E00E946C0385FF07C061E070E00B
:1008500080E090E00E941701F3CFDF91CF911F91CC
:100860000F91FF90EF90DF90CF900895CF92DF929D
:10087000EF92FF920F931F93CF93DF938C016091C0
:10088000FC037091FD036150784EC12C98E1D92E84
:10089000ECEFF3E020E0D0E0C0E045E03481CB01B4
:1008A000332341F0439FC001112484509C4FDC014D
:1008B0008D919C91E080F1808E199F090280F381D7
:1008C000E02D8E1B9F0B8017910799F4B5E02B9FAD
:1008D000E0011124C450DC4FE1E0F4E081E022812A
:1008E0003381232B09F453C035968F5F8533B9F7D5
:1008F00044C00817190748F48C159D0530F4249F4F
:10090000E0011124C450DC4F6C01311121C020974B
:1009100019F7CCEFD3E085E0D82E8C81288139817E
:10092000EA80FB808823D9F0E20EF31E8D9DE00162
:100930001124C450DC4F68817981E616F70669F30B
:100940004A815B81C7010E94DC03F982E882E5CF1E
:10095000349FF0011124E450FC4F232F9FCF80914E
:10096000FC039091FD03821B930B8E199F0981500C
:10097000984E8017910708F0AFCF80E0DF91CF91BC
:100980001F910F91FF90EF90DF90CF9008952881F5
:1009900039814A815B81240F351F31832083138382
:1009A00002839C8194838C83E9CF0F931F93DB0197
:1009B000E42FA80190E0EF3FE1F065E0E69FF00151
:1009C0001124E450FC4F60817181620F731F01C0DC
:1009D000785025E0289FF001299FF00D1124E45064
:1009E000FC4F808191818A0F9B1F1F910F910C9466
:1009F000DC036091070570910805620F731F611594
:100A0000E8E07E0728F7E7E0F5E0DDCFCF92DF9260
:100A1000EF92FF920F931F93CF93DF936B018A01A5
:100A2000790195E0899FE0011124C450DC4F688171
:100A300079816C0D7D1D82E00E94DA020A80DB81E3
:100A4000C02DCC19DD09EC16FD0608F4E70160E0C5
:100A50008AE00E94A6008AE70E949B027801EC0EC1
:100A6000FD1EE016F10631F0F80181918F010E9420
:100A70009B02F7CF61E08AE00E94A600CE01DF91E1
:100A8000CF911F910F91FF90EF90DF90CF9008953D
:100A9000DC011C96ED91FC91309731F086819781B5
:100AA000982789279827089590E080E00895CF93AC
:100AB000DF93FC01EB01AC85BD851097A9F0129680
:100AC0009C91129713968C9113973C9111962C91AF
:100AD00043E851E0518340833283238394838583A9
:100AE000CF01DF91CF91089583E891E091838083D6
:100AF0001282138214821582F3CFCF93DF931F9259
:100B0000CDB7DEB7DC01ED91FC91048CF58DE02DC5
:100B100041E050E0BE016F5F7F4F0995181619063E
:100B200034F4898190E00F90DF91CF9108958FEF99
:100B30009FEFF9CFCF93DF93EC018A89882379F077
:100B40009A01AB016E857F850E9406052E853F8543
:100B5000280F391F3F872E87DF91CF91089590E0AE
:100B600080E0FACFCF93DF931F92CDB7DEB76983D2
:100B7000DC01ED91FC910280F381E02D41E050E039
:100B8000BE016F5F7F4F09950F90DF91CF91089560
:100B900080E00895CF93DF931F92CDB7DEB76983CE
:100BA000DC01ED91FC910280F381E02D41E050E009
:100BB000BE016F5F7F4F09950F90DF91CF91089530
:100BC000762767277627DC0115967C936E9314971A
:100BD000ED91FC910084F185E02D0994089590E059
:100BE00080E00895FB0141505109460F571FE4175B
:100BF000F50778F4208130E0322F22276181260F1B
:100C0000311D820F931F8217930708F401963296C5
:100C1000EECFE417F50751F4208130E0322F222780
:100C2000820F931F8217930708F401960895CF92BD
:100C3000DF92EF92FF920F931F93CF93DF93C82F12
:100C4000E0904302F12CFE2CEE24409144024451EA
:100C5000550BE40EF51E48E050E06DE472E0C7016C
:100C60008C0F911D0E94F20508E0C13129F000911E
:100C70006102069506950C7310E0A80165E572E027
:100C80000E94F205EC010E151F0508F049C0A701EE
:100C9000401B510B8091120262E270E081FF02C0A2
:100CA00063E270E0600F711F809113020E94F002F6
:100CB00001977C0160E08AE00E94A6008AE30E941E
:100CC0009B02D12CC12CCE14DF04B8F480E00E942A
:100CD0009B02082F10E0102F002780E00E949B024B
:100CE000800F912F911DC80FD91FC817D90708F47D
:100CF000219682E0C80ED11CE6CFEC14FD0461F40D
:100D000080E00E949B0290E0982F8827C80FD91F8F
:100D1000C817D90708F4219661E08AE00E94A6006E
:100D20009C2F8D2FCD2B11F48FEF9FEFDF91CF9163
:100D30001F910F91FF90EF90DF90CF90089544E1C5
:100D400050E061E472E090E080E00E94F2050097DC
:100D500021F098278927982708958FEF9FEF08950E
:100D6000FF920F931F93CF93DF93C0911202C1FFA5
:100D700066C02091100230E043E352E061E070E091
:100D8000809113020E940605CD7FC0931202F0905D
:100D9000130280910D05882309F444C085E0F89E74
:100DA000F0011124E450FC4F00811181C281D381F4
:100DB000C00FD11F60E0C8010E94B003B80184E0F9
:100DC0000E94DA02BE016850710986E00E94DA02D0
:100DD0001AE0249740E86FE180E80E94A20240E810
:100DE0006FE180EA0E94A2024AE06CE180EA0E9480
:100DF000A20248E06FE180E80E94A2028CE10E941A
:100E00008A03082F8A70D1F348E06FE180EA0E94DC
:100E1000A20201FF2DC0CE010E94C50385FF02C0C2
:100E20001150C1F6C0E08F2D0E9462021092130291
:100E30008C2FDF91CF911F910F91FF900895C0915A
:100E40002B02D0912C02CE01089621F410921302AD
:100E5000C0E0EECF0E943604809313028823C1F3D2
:100E60009E0143E352E061E070E00E9406058FCFEF
:100E7000C1E0D9CF0F931F93CF93DF93EC018C0187
:100E80000B5F1F4F89910E946202FE013197108211
:100E9000C017D107B9F7DF91CF911F910F91089536
:100EA000CF93DF93EC0188810E946202FE01CE01A4
:100EB000049621812193E817F907D9F71C82DF9165
:100EC000CF910895CF93DF93EC01E881F981008CF5
:100ED000F18DE02D0995882339F08C859D8502964A
:100EE000DF91CF910C943A07DF91CF9108950F9342
:100EF0001F93CF93DF931F92CDB7DEB78C01DC0138
:100F0000ED91FC91008CF18DE02D09958823B1F0D5
:100F1000D8011C96ED91FC918281882379F041E003
:100F200050E0BE016F5F7F4F0E942603898190E0F1
:100F30000F90DF91CF911F910F9108958FEF9FEF49
:100F4000F7CFCF93DF931F92CDB7DEB7DC01ED91E2
:100F5000FC910288F389E02D41E050E0BE016F5F13
:100F60007F4F09951816190634F4898190E00F9087
:100F7000DF91CF9108958FEF9FEFF9CF0F931F93DC
:100F8000CF93DF93EC010E944901688779878A87B4
:100F90009B87CE010E94A10797FF15C00E944901BF
:100FA000088519852A853B85601B710B820B930B85
:100FB0000C811D812E813F81601771078207930785
:100FC00040F38FEF9FEFDF91CF911F910F91089525
:100FD0006F927F928F929F92AF92BF92CF92DF9249
:100FE000EF92FF920F931F93CF93DF938C014B01EE
:100FF000EA01DC01ED91FC91008CF18DE02D099569
:10100000882309F47BC0D8011C96ED91FC91828164
:10101000882309F476C07E018EE1682EBE016E1928
:101020007F09680D791DD8011C96ED91FC91A701EF
:1010300082810E9426036C01F801A484B584D50145
:1010400012967C90872D0E948202C816D906E9F577
:10105000EC18FD08C50102960E945007F801A4850E
:10106000B585EC916E9EF0011124E558FC4F818D01
:1010700084FF09C011968C911197982F967019F4DE
:10108000886011968C93D8011C96ED91FC911D9768
:10109000828181112EC0818182FF05C011821D963F
:1010A0001C921E921C97CE018E199F09DF91CF9141
:1010B0001F910F91FF90EF90DF90CF90BF90AF9076
:1010C0009F908F907F906F900895B5E07B9EF00188
:1010D0001124E450FC4F808191818C0D9D1D9183E2
:1010E0008083828193818C199D0993838283CE01B1
:1010F000DDCFE114F10409F091CFF9CF8FEF9FEF2D
:10110000D5CF90E080E0D2CFEF92FF920F931F9364
:10111000CF93DF93EC01E881F981008CF18DE02D14
:1011200009958823E1F00C851D85780182E0E80EA1
:10113000F11C095F1F4FD0E0C0E0F70181917F01F2
:101140000E948202C80FD91FE016F106B1F7CE0146
:10115000DF91CF911F910F91FF90EF900895D0E014
:10116000C0E0F5CFFC01448555854115510551F08E
:10117000FB01248535852115310521F081E04217D9
:10118000530709F080E00895DC011C96ED91FC9175
:10119000309731F08281811105C08181817008957D
:1011A00080E0089581E00895DC01ED91FC91028CCE
:1011B000F38DE02D099591E089270895DC01ED91EB
:1011C000FC91048CF58DE02D0994CF92DF92EF9283
:1011D000FF920F931F93CF93DF93CDB7DEB7C25427
:1011E000D1090FB6F894DEBF0FBECDBFFC018281DE
:1011F0009381A481B58123968CAF9DAFAEAFBFAF75
:10120000239721E023962FAF239723964CAD5DAD16
:101210006EAD7FAD23974BAB5CAB6DAB7EAB89AF57
:101220009AAFABAFBCAF8DA79EA7AFA7B8AB28ABAB
:101230004DA55EA56FA578A94FA358A769A77AA762
:101240002EAB4BA95CA96DA97EA949A35AA36BA398
:101250007CA38B8F9C8FAD8FBE8F2AA74FA158A5E3
:1012600069A57AA54D8B5E8B6F8B788F2CA349A1D6
:101270005AA16BA17CA14F87588B698B7A8B898788
:101280009A87AB87BC870E94490166507F4F8F4F7A
:101290009F4F6093140570931505809316059093E6
:1012A000170580910D05811145C08AE00E948700D5
:1012B00061E08AE00E94A6001FB7F89480910C05B7
:1012C000811124C0EAE9F0E08491EEEAF0E0949123
:1012D000E82FF0E0EE0FFF1FEA57FF4FA591B49102
:1012E000EC91E92321F461E08AE00E94A6008AE003
:1012F0000E9487008CB580618CBD8CB580648CBDEC
:101300008DE00E9487008BE00E94870080910C0591
:101310008F5F80930C051FBF8CB58C7F8CBD8DB506
:1013200081608DBD82E70E948A038F3F09F441C02E
:1013300080930D05109208051092070510920A057A
:1013400010920905ECEFF3E089E091E0DF019C01E8
:101350001D9221503040E1F781E098E09093FD0329
:101360008093FC034FEF60E08FEF0E94A20262E0E7
:1013700070E080E090E00E94170162E370E080E09E
:1013800090E00E941701109206051092050500E1F9
:1013900010E06DE180E00E946C0381110DC00150EE
:1013A000110951F06AE070E080E090E00E941701BE
:1013B000F0CF10920D05BECF70E060E088E00E9493
:1013C000DA0270E060E08CE00E94DA026FEF77E012
:1013D0008AE00E94DA0261EB88E30E945F036FE318
:1013E00070E388E20E94DA0269EF77EF80E30E94FF
:1013F000DA026DE070E080EC0E94DA0242E362EC17
:1014000080E80E94A20262E17CE086EC0E94DA029F
:1014100062E184EC0E945F036CED75E08AEC0E944F
:10142000DA026091010184EE0E945F036091020183
:1014300085EE0E945F036091030182EE0E945F03CC
:101440006091040183EE0E945F036091050180EECC
:101450000E945F036091060181EE0E945F0360E0DD
:1014600071E080E10E9493038FE10E94BB0240EC97
:101470006BE180E80E94A20244E06FE180E80E94F4
:10148000A20266E774E084E10E9493038091010167
:1014900080930E058091020180930F0580910301D6
:1014A00080931005809104018093110580910501BE
:1014B0008093120580910601809313051092F40326
:1014C0001092F3031092F6031092F5031092F803B2
:1014D0001092F7031092FA031092F90310929403FA
:1014E0001092B2031092D0031092EE0380E094E0C9
:1014F00090937A03809379031092520310925103D0
:1015000010925D0310925C031092680310926703BF
:10151000109273031092720384E08093FB03109285
:101520004C039BE024E080914C03883008F44CC0CD
:101530004D895E898F8921E02A8BCF84D888E988FC
:10154000FA88CB82DC82ED82FE826B857C85E98520
:10155000FA85F093F102E093F0027093F302609346
:10156000F2025093ED024093EC0290E09160909370
:10157000EF028093EE028FEF9FEF9093E90280934A
:10158000E8028FEF90E09093EB028093EA022E83C3
:101590008B819C81AD81BE81809316069093170646
:1015A000A0931806B0931906CE5BDF4F0FB6F894E0
:1015B000DEBF0FBECDBFDF91CF911F910F91FF9086
:1015C000EF90DF90CF900895899FF0011124EC50A7
:1015D000FD4FDF01322F1D923A95E9F78F5F80931F
:1015E0004C03A1CF0F931F93CF93DF93DC01209186
:1015F000790330917A032F5F3F4F21158DE738072C
:1016000010F020E030E1522F432FEDE4F3E0EF0142
:1016100080E08430A1F430937A032093790330E0A2
:1016200020E02430310599F484E08093FB03F0E05E
:10163000E0E0CF01DF91CF911F910F9108950C81D0
:101640001D818F5F2B960417150719F7D4CFC4811E
:10165000D581C90101963B96CD2B09F52093FB035B
:101660008BE0829FF001839FF00D1124E35BFC4F20
:101670005583448377836683109799F484E0DF0170
:101680001D928A95E9F78BE0829FD001839FB00D70
:101690001124A35BBC4F80E418968C93CACF9C01A5
:1016A000C0CF8D919C9111979183808312968D91DB
:1016B0009C9193838283E7CF0F931F93CF93DF9304
:1016C000EC018B018C859D85892B41F470E060E0F5
:1016D00090E080E00E94F20A9D878C87EC85FD8572
:1016E00080E0309749F010270127102715830483E5
:1016F0002E96D287C18781E0DF91CF911F910F9104
:101700000895CF93DF93DC011C96ED91FC91309707
:10171000B1F0EC0115821482128611861D861C869A
:1017200089890E94620288890E9462028A890E94D5
:1017300062022E9686E0FE0111928A95E9F7DF910A
:10174000CF910895FC011382128288EE93E0A0E00D
:10175000B0E084839583A683B78381E191E0918390
:101760008083158614863E9686E0DF011D928A9559
:10177000E9F70895FB0101900020E9F73197AF01E7
:10178000461B570BDC01ED91FC910280F381E02DAB
:1017900009948F929F92AF92BF92EF92FF920F9314
:1017A0001F93CF93DF93CDB7DEB7A1970FB6F89411
:1017B000DEBF0FBECDBF7C01FA01CB0119A22230E2
:1017C00008F42AE08E010F5D1F4F822E912CB12C60
:1017D000A12CBF01A50194010E94E024F901CA01D6
:1017E0006A300CF5605DD8016E938D01232B242B9C
:1017F000252B79F790E080E0109721F0BD01C7011B
:101800000E94BA0BA1960FB6F894DEBF0FBECDBFF3
:10181000DF91CF911F910F91FF90EF90BF90AF900C
:101820009F908F900895695CDECF8F929F92AF92C8
:10183000BF92CF92DF92EF92FF920F931F93CF93BD
:10184000DF937C01EB016C0182E0C80ED11C4701E3
:10185000E5E08E0E911C10E000E0F60141916F0171
:1018600050E070E060E02AE0CE010E94C90B5C010C
:10187000E881F9810190F081E02D6EE2CE010995B9
:101880008A0D9B1D080F191FC814D90431F7F701E1
:10189000458150E070E060E02AE0CE010E94C90B73
:1018A000800F911FDF91CF911F910F91FF90EF90CB
:1018B000DF90CF90BF90AF909F908F9008950F933F
:1018C0001F93CF93DF93EC010E94BA0B8C0165E864
:1018D00071E0CE010E94BA0B800F911FDF91CF9172
:1018E0001F910F9108950F931F93CF93DF93EC01F6
:1018F00088819981009759F02A813B812617370703
:1019000030F081E0DF91CF911F910F9108958B010D
:101910006F5F7F4F0E94D326009759F09983888389
:101920001B830A832C813D81232B59F7FC011082F4
:10193000E8CF80E0E7CFEF92FF920F931F93CF9312
:10194000DF93FC0110924C03C4EFD2E0DE0130E0E3
:1019500020E02830310569F490E0983009F042C069
:1019600010922A021092290210924C0324EF32E0C6
:1019700044C0CD01845F92400D911C9111970115D7
:10198000110561F112964D915C9113974115510526
:1019900029F1E080F1800E151F0501F50281138108
:1019A00040175107D9F420934C03DC01A850BD4FD8
:1019B00086E0FB0101900D928A95E1F78BE0829F12
:1019C000F001839FF00D1124EC50FD4F1286DF9142
:1019D000CF911F910F91FF90EF9008952F5F3F4F90
:1019E0001B96B7CF9E0148815981452BB1F44A819E
:1019F0005B81452B91F490934C0384E0D9010190D5
:101A00000D928A95E1F7D901149686E0FB010190C9
:101A10000D928A95E1F7F901D9CF9F5F2B969DCF63
:101A2000EF92FF920F931F93CF93DF9300D000D0DC
:101A300000D0CDB7DEB740915102509152024F3FD6
:101A4000540731F48091530290915402019619F198
:101A50008091F0029091F1026091E8027091E902A8
:101A60009B0120953095282B392B42175307A9F558
:101A70002091EA023091EB0220953095E091F2023C
:101A8000F091F3022E2B3F2BE0915302F091540280
:101A9000E217F30711F586E0E5E3F1E0A3E3B2E036
:101AA00001900D928A95E1F786E0EEE0F5E0A9E37A
:101AB000B2E001900D928A95E1F788E090E0909372
:101AC000400280933F0280912B0290912C020E964F
:101AD00090932C0280932B02A5C084279527862300
:101AE0009723892B99F420915302309154028091CD
:101AF000F2029091F302822793276091EA0270919B
:101B0000EB0286239723892B09F499C08091EC027C
:101B10009091ED029093300280932F028091EE021B
:101B20009091EF029093320280933102E0902F0265
:101B3000F09030020091310210913202E4EFF2E0B5
:101B400080E0883009F084C080934C0346E050E088
:101B50006FEF70E083E392E00E94992786E0E3E56F
:101B6000F2E0DF01282F1D922A95E9F7EEE0F5E07B
:101B7000A9E3B2E0982F01900D929A95E1F7EEE07B
:101B8000F5E0A9E4B2E0982F01900D929A95E1F763
:101B9000F0925A02E092590210935C0200935B02A9
:101BA0002091F0023091F1023093500220934F02C5
:101BB0002091F2023091F3023093520220935102AD
:101BC00020E031E0309348022093470230934202F4
:101BD0002093410228E030E03093440220934302F6
:101BE0008093450294E09093460228E036E03093DB
:101BF000400220933F0229E632E030932E022093E8
:101C00002D022AE230E030932C0220932B02BE01F9
:101C10006F5F7F4FDB011D928A95E9F78FE292E0BB
:101C20000E949B0C26960FB6F894DEBF0FBECDBF68
:101C3000DF91CF911F910F91FF90EF9008955093F6
:101C4000300240932F0230933202209331026ECF44
:101C500020813181E216F306E1F4228133810217FB
:101C60001307B9F49481911103C09581992329F048
:101C700080934C03349686E011CF96819111F8CF72
:101C800097819111F5CF90859111F2CF91859111A6
:101C9000EFCF8F5F3B9655CFCF93DF93EC010E9440
:101CA000100D80912B0290912C028A9759F410927A
:101CB0001302809112028D7F80931202DF91CF91E7
:101CC0000C94B0060E94B0061D821C82DF91CF9159
:101CD00008959C01AB0170932802609327021616A9
:101CE000170654F4809125029091260282179307DB
:101CF00019F0B9010C9490270895EF92FF920F9379
:101D00001F93CF93DF93E0911C02F0911D02C185D8
:101D1000D285209709F456C0E0902202E1FE1FC050
:101D20008A8181111CC0809155029091560297833F
:101D3000868380914D0290914E02918380838091A1
:101D40004F02909150029383828380915902909127
:101D50005A02982789279827089709F51A82E3FEDF
:101D600031C08D81882371F18C8180931302809121
:101D700012028260809312028AE2809310026881CC
:101D800079816B52710980912D0290912E02DF9121
:101D9000CF911F910F91FF90EF900C94690E0E94CC
:101DA0003604F82E8A838823D1F20E9482028C01A5
:101DB0002AE230E04091110270E060E08F2D0E9435
:101DC000D504CDCFDF91CF911F910F91FF90EF9070
:101DD0000895AF92BF92CF92DF92EF92FF920F934E
:101DE0001F93CF93DF93E0902302F0902402F7013A
:101DF000C48DD58DD0902202209761F5D6FC03C00A
:101E0000F12CE12CC1C0E7E9F2E090E080E0218113
:101E100021117CC022E1289FE001299FD00D1124CF
:101E2000C956DD4FFE0111922A95E9F7C7018B577C
:101E30009340959587954FEE5EEE849F9001859F28
:101E4000300D949F300D1124288381E08983F701A0
:101E5000D58FC48FD1FE32C000912B0210912C027D
:101E60000115110559F189818823A9F181FD26C049
:101E70005E01F2E0AF0EB11CC12CF50181915F0152
:101E800081114BC0C8010E943604F501319780834F
:101E9000882309F442C020912D0230912E02235351
:101EA00032404091110270E060E00E94D504F4E0FD
:101EB000CF1204C0F701818D8061818F898183FFFA
:101EC0000AC0877F89838D2D826080932202F7016B
:101ED000818D8F7E818F8091220284FD04C087FDD9
:101EE00002C085FF26C0CE0107960E943A078A816C
:101EF0008823E9F0F7018481958198878F83898110
:101F000084608983F701158E148E7ACF01967296BC
:101F10008430910509F07BCF73CFC394F5E0CF12E5
:101F2000ACCF809112028E7F80931202C3CF1982B0
:101F3000E9CF80FF3FC0CE0107960E9450078F81F6
:101F40008823D1F19885911145C0EC84FD84E1147A
:101F5000F10409F455CF95E0899FF0011124E45074
:101F6000FC4FF382E28200912D0210912E02035366
:101F70001240009310021127C80108968E0D9F1D74
:101F8000009779F510921302B70180912D0290917C
:101F90002E020E94690EF0922C02E0922B02DF9139
:101FA000CF911F910F91FF90EF90DF90CF90BF9056
:101FB000AF9008958C7019F6898181FF21CF8F81B0
:101FC000811124C01982F701158E148E80E180934F
:101FD000220216CF0E9482027C01892B09F410CFC5
:101FE000C2CF0E94360480931302882369F2B8019D
:101FF0006F5F7F4F870130E020E04F810E94D50462
:1020000080911202826080931202BECFF701818D0F
:102010008061818FF5CEAF92BF92CF92DF92EF9227
:10202000FF921F93CF93DF93843009F458C1C0917E
:102030002302D091240229E632E030932E0220932D
:102040002D0230932602209325028330C9F4898D16
:102050008F70833009F044C088899989892B09F0F1
:102060003FC088E0809322020E94E90E8091220204
:1020700085FF13C61092280210922702198E51C0B4
:10208000823009F005C1809121028F5F8093210287
:10209000811113C0809120028F5F809320028111F3
:1020A0000CC080911F028F5F80931F02811105C0B9
:1020B00080911E028F5F80931E0210922C0210925C
:1020C0002B021092280210922702898D982F9D7F53
:1020D000953059F48A8D8F5F8A8F883709F4198E6D
:1020E00010922C0210922B0231C28823C9F3288946
:1020F0003989232B09F4C7C09A8D2FEF290F2A8F16
:102100009111EECF9B8D983031F02FEF280F2230B8
:1021100050F4953041F4198E80E8809322020E9499
:10212000E90E84E184C0392F953008F034E023E0D3
:1021300001C0220F3A95EAF72A8F9F5F9B8F8F701D
:10214000833009F47DC008F06AC0813009F406C408
:10215000823031F610926202809162028260809336
:10216000620282E08093690294E090936A02809315
:102170006B0210926C028CE290E090932C028093A0
:102180002B0280E680936102888580935D028985B9
:1021900080935E028A8580935F028B8580936002C4
:1021A0008C85809359028D8580935A028E85809309
:1021B0005B028F8580935C0286E080934A028C816B
:1021C0009D8190935602809355028E819F819093BA
:1021D0005802809357028091F0029091F1029093FF
:1021E0004E0280934D028091F2029091F3029093FF
:1021F000500280934F02888199819093520280937C
:1022000051028A819B819093540280935302898D5D
:1022100084FFC9C51092640210926302D5C2863051
:1022200029F0883019F0843009F05ACF81E1809389
:10223000620288E290E090932C0280932B0221C0EE
:1022400084E0809322020E94E90E80912502909101
:10225000260290932E0280932D0280912702909166
:102260002802892B09F44AC588899989009709F4BD
:1022700045C5889690932C0280932B0288E1809329
:10228000620280E57FCF8F70833009F029CFE9CEDD
:10229000853009F0A9C0E0911C02F0911D028481F3
:1022A0009581892B09F41CCF1092240210922302ED
:1022B0008DE592E090932E0280932D02909326025A
:1022C00080932502109228021092270210922C026D
:1022D00010922B0288E0809322020E947D0E809152
:1022E000270290912802009709F4FACE9C01245EFF
:1022F0003F4F30932C0220932B02309343022093C4
:102300004402E0911C02F0911D02208520934902B5
:1023100021E120934A0208969827892798279093CD
:102320005A028093590210925C0210925B028481DF
:102330009581909356028093550286819781909360
:102340005802809357028091F0029091F10290938D
:102350004E0280934D028091F2029091F30290938D
:10236000500280934F02808191819093520280931A
:10237000510282819381909354028093530289E6A3
:1023800092E090932E0280932D0281E10E94170625
:1023900080959095009709F45BC190935C028093BF
:1023A0005B0285E48093410210924202109248023F
:1023B0001092470280911402909115020196909319
:1023C0001502809314029093450280934602109266
:1023D0004C0210924B020E949F068095909590931C
:1023E0004C0280934B02B2C080914102853409F0C7
:1023F00077CEC0904302D12CDC2CCC2480914402B7
:10240000C80ED11C80912B0290912C028C159D0539
:1024100008F466CED0922C02C0922B028091470223
:102420008F7309F05DCE10914802111159CEA09022
:10243000F002B090F102A114B10439F48091F202DB
:102440009091F302892B09F441C0209151023091FF
:10245000520280914A02813149F52F3F320739F407
:102460008091530290915402019609F47DC08091AD
:10247000E8029091E902809590958A299B2982171C
:102480009307A1F48091EA029091EB0280959095D8
:102490004091F2025091F302842B952B409153020C
:1024A000509154024817590709F45EC0A216B306AA
:1024B00009F016CE20915302309154028091F2021D
:1024C0009091F3022817390709F00ACE0E949F065F
:1024D000019609F005CE80914A02863009F4BBC00E
:1024E000813109F441C0813009F0FACD8091550263
:1024F000883009F0F5CD10925502809157029091E5
:102500005802873F4FEF940768F10996909358025D
:102510008093570280914D0290914E029093520207
:102520008093510280914F029091500290935402F7
:1025300080935302B0924E02A0924D028091F2021B
:102540009091F3029093500280934F0210922202D6
:10255000DF91CF911F91FF90EF90DF90CF90BF90D0
:10256000AF9008950896D2CF8CE1C81AD108D092C6
:102570002C02C0922B028DE592E090932E02809364
:102580002D0280915B0290915C02892BE1F44091D5
:102590005702509158026091550270915602A091D5
:1025A0004D02B0914E02C0914F02D0915002EDE425
:1025B000F3E029E733E02E173F0761F430931D0263
:1025C00020931C028DCD81E10E941706019609F02F
:1025D00087CDDDCF848195810097C1F18417950760
:1025E000A9F586819781009719F08617970771F5ED
:1025F000808191810097D1F4E280F380EF28F1F49B
:10260000F0931D02E0931C02109224021092230208
:1026100082E0809322028DE592E0909326028093DF
:102620002502109228021092270257CE8F3F98075A
:1026300029F4E280F380EF20E09411F38A179B07DE
:1026400029F482819381C817D907D1F23B96B3CF81
:102650008FEF9FEFA2CE86E00E941706019609F049
:102660003FCD4091570250915802609155027091B0
:10267000560280914D0290914E02E0914F02F091EE
:102680005002CBE7D3E0298D2223A9F0AC81BD8194
:102690004A175B0781F4AE81BF816A177B0759F443
:1026A000A881B9818A179B0731F4AA81BB81EA17F7
:1026B000FB0709F45BC16E9623E0C53DD20719F311
:1026C00010F3809162028F73823061F450931B0289
:1026D00040931A02E3EFF3E080E0843009F091C008
:1026E0008093FB038091620282FDFACC84E18093A7
:1026F000620288E290E090932C0280932B0280E5A6
:102700008093610230915C028091600280935C0250
:1027100020915B0280915F0280935B0220935F02B5
:1027200090915A0280915E0280935A0290935E02C9
:10273000809159028093FB0340915D0240935902BE
:1027400080935D023F5F3093600231110DC02F5FB7
:1027500020935F02211108C09F5F90935E02911148
:1027600003C08F5F80935D02809155029091560265
:1027700090931B0280931A022091570230915802C5
:10278000309356022093550290935802809357023B
:1027900080914D0290914E0290935202809351028B
:1027A00080914F0290915002909354028093530273
:1027B000B0924E02A0924D028091F2029091F302EB
:1027C0009093500280934F0280E48093490280915D
:1027D0002B0290912C02909343028093440210921A
:1027E000680210926702109266021092650286E0FB
:1027F0000E941706809590959093660280936502DB
:10280000D0CD219131918F5F4217530709F065CFE9
:102810001092FB03EBE7F3E090E080E0D0E0C0E053
:102820008430910531F484E08093FB03209781F498
:1028300057CC3E2F2F2FA18DA11163C08093FB0396
:102840002EE1289FE001299FD00D1124C558DC4FAF
:10285000D0932402C093230283E08A8F888F1E8A3C
:1028600084E08F8B1B8E5D834C837F836E8380918E
:102870004D0290914E029983888380914F029091EE
:1028800050029B838A8381E0898F80911E028C870E
:1028900080911F028D87809120028E878091210276
:1028A0008F8781E090E0998B888B80915C028B8789
:1028B00080915B028A8780915A02898780915902B0
:1028C000888781E090E00E94622080916102982FC9
:1028D000907F913508F442C082958F708550990B96
:1028E000880F991F880F991FE12FF0E0E817F9076B
:1028F0002CF4ED5CFD4F36A9311112C01093FB038F
:102900002DC0A73031F4209731F0B28DAA8DAB17CE
:1029100010F03C2F2D2F01967E96C32FD22F80CF03
:10292000313011F41F5FE0CF27A93230D9F42430C1
:10293000C9F41093FB0380AD91AD892798278927AF
:1029400090931B0280931A02813042E0940710F0AA
:1029500080E092E09B8B8A8B9D8B8C8B80E18093B7
:102960006202FACB222351F2120FBECFD09324027F
:10297000C0932302109222029091620292FF07C03C
:10298000198E80E2809322020E94E90EA9CB8091E9
:10299000610282958F70880F880F8093FB03C81A9D
:1029A000D108760184E1E81AF108F0922C02E09255
:1029B0002B022F70223021F4892F8F738231D1F0B6
:1029C000E114F10419F4892F8370A1F039852A8567
:1029D0008B855091590248855413C0C140915A02C9
:1029E0004313BCC130915B023213B8C120915C0229
:1029F0002813B4C194FF49C06889798961157105AC
:102A000009F443C0CE010C960E942F2030915D0244
:102A100080911602381339C020915E02809117020E
:102A2000281333C090915F028091180298132DC033
:102A30008091600240911902841327C03C872D8742
:102A40009E878F87988D8B8D811118C08E892A8DD6
:102A5000921B282F269526952695921B890F8E8BE3
:102A600097FD91952F89322F36953695231B920F1E
:102A70009F8B869586958695890F888F81E08093B8
:102A80002202888D8A8F198A188A298DE22FEF7089
:102A9000E150E83008F024CBF0E0EF5AFA4E0C9405
:102AA000A82559157215DC159116BA16CB16AE1657
:102AB0008A168091220280FF13CB83E0898F80E405
:102AC00080932202198A188AE114F10431F082E419
:102AD00080932202C7010E94622010922802109265
:102AE0002702C2CA8091220280FF5FC080916202E9
:102AF0008F73823109F059C080916102982F907FC5
:102B0000913598F182958F708550990B880F991F98
:102B1000880F991FE12FF0E0E817F9072CF4ED5C1E
:102B2000FD4F36A9311103C01093FB031EC0313095
:102B300011F41F5FEFCF27A9323099F5243089F5C2
:102B40001093FB0380AD91AD892798278927909337
:102B50001B0280931A02813012E0910710F080E08E
:102B600092E09B8B8A8B9D8B8C8B83E0898F8091ED
:102B70005902888780915A02898780915B028A87EF
:102B800080915C028B8781E090E00E94622082E469
:102B900080932202198A188A10922C0210922B021A
:102BA0009CCF222309F2120FB5CF80E2809322023C
:102BB0000E94E90E198E96CD8091620280FF20C09E
:102BC00024FD1EC088899989892B09F089CAC6010C
:102BD00043970E94622080912202982F90619093E7
:102BE0002202EF2819F08261809322020E94E90EEE
:102BF00081E090E0998B888B88E0898F1B8E16CBC3
:102C000085FF14C0809167029091680298278927F8
:102C10009827AC0147595D4F50932E0240932D02E7
:102C2000E81AF90AF0922C02E0922B0240912B0252
:102C300050912C02909122024115510541F024FD42
:102C400006C0926090932202CA010E946220809185
:102C50006302282F30E0322F222780916402820FF6
:102C6000932F911D90931B0280931A022C893D890A
:102C70002817390710F0892B21F430931B02209379
:102C80001A0280911A0290911B029B8B8A8B809171
:102C90002202837009F424CA20CF84FF0AC0109254
:102CA00028021092270281E090E0998B888B84E0C3
:102CB000A4CF209127023091280221153105B9F0C7
:102CC00080FF02C0198A188A88899989009789F437
:102CD0008A899B898217930720F490932802809316
:102CE00027028091270290912802998B888B1B8E56
:102CF000ACCA9093280280932702F9CF80912202D8
:102D000081FFEEC988E290E090932C0280932B0221
:102D100080E1B5CA8091220280FFE2C9198E80E16C
:102D200031CEE114F10419F0C7010E9462208091B4
:102D3000220281709091620290FF15C0882381F079
:102D400087E0898F1A8E198A188A81E090E00E94A4
:102D5000622080E1809322020E94E90E80E167CA2E
:102D600086E0898FF2CF882399F085E0898F198AD0
:102D7000188AB6C9E114F10419F0C7010E94622053
:102D80008091620280FF04C087E0898F1A8EDDCFB8
:102D9000EF2821F7A5C98091220280FFA1C987E011
:102DA000898F1A8E9DC982E080936302109264021B
:102DB0000BCDCF93DF93EC012C853D85211531059B
:102DC00029F490E080E0DF91CF910895EA89EE2325
:102DD000C1F381E08B8B85E0E89FF0011124E45082
:102DE000FC4F8E859F8507969383828330931D02C7
:102DF00020931C0285E00E940B1080912B02909181
:102E00002C02892BF1F2CE010E960E944C0E81E02D
:102E100090E0D9CF8F929F92AF92BF92CF92DF92E4
:102E2000EF92FF92CF93DF9380910D05882309F4F1
:102E30001FC1D0911102D11151C089E30E948A03B0
:102E4000882309F449C060910505709106056B015E
:102E500026E0C20ED11CC11438E0D30628F06B0165
:102E60004AEFC41A47E0D40A80E00E94DA0260E028
:102E70008AE30E946C03E82E60E08AE30E946C0300
:102E8000F82EF0920605E092050560E08AE30E94C4
:102E90006C03B82E60E08AE30E946C03C82F60E0E8
:102EA0008AE30E946C03A82E40E46EE180E80E9451
:102EB000A202A7FEE8C0E11458E0F50608F0E3C05E
:102EC000D0920805C09207059C2F8B2D04979093F4
:102ED0000A0580930905DFEFD0931102F0901102EB
:102EE000FF2009F472C081E0809312028F2D0E94AE
:102EF0008202EC0190932C0280932B02892B09F41F
:102F0000EFC042E650E063E372E08F2D0E9426039B
:102F1000C0903F02D090400288E0C816D10409F06A
:102F2000CDC0F09213022E97D0932C02C0932B02A7
:102F300020914D0230914E02E091F002F091F102A9
:102F4000C9018E279F274091E8025091E90284230E
:102F50009523892B49F540914F0250915002609181
:102F6000F2027091F302CA0186279727A091EA0224
:102F7000B091EB028A239B23892BB1F480915102FB
:102F800090915202E817F90709F080C0809153022E
:102F9000909154026817790709F078C069E372E0EC
:102FA0008DE492E00E949B0C81E00E940B108091C6
:102FB0002B0290912C02892B21F00E94100D0E946F
:102FC000B0068091120280FD8BC00E9449016B0106
:102FD0007C018091140590911505A0911605B09182
:102FE000170546015701881A990AAA0ABB0ACBE7B6
:102FF000D3E0D0932402C0932302B7FC08C182E03F
:103000000E940B1080912B0290912C02892B21F0B1
:103010000E94100D0E94B0066E9633E0C33FD307A6
:1030200041F7B7FC25C04AEFC40ED11CE11CF11CCE
:10303000C0921405D0921505E0921605F09217057E
:10304000CDE4D3E0D0931D02C0931C0285E00E9422
:103050000B1080912B0290912C02892B21F08985F5
:103060009A850E944C0E2B9653E0C937D50751F72D
:10307000DF91CF91FF90EF90DF90CF90BF90AF9016
:103080009F908F9008950E94500326CFE4EFF2E0C6
:1030900080E0883019F480934C0386CF6081718181
:1030A0002617370741F4628173814617570719F4D1
:1030B00080934C0373CF8F5F3B96EBCF28E0C21613
:1030C00026E0D20669F410922C0210922B02AA97E5
:1030D00060F480912B0290912C02892B09F06FCF24
:1030E0000E9450031092110270CF8091470290917C
:1030F0004802811531E0930701F18115924049F7AB
:103100002091590230915A028091F0029091F1027F
:1031100028173907F1F620915B0230915C0280910B
:10312000F2029091F3022817390799F669E472E0E8
:103130008FE492E00E949B0CCCCFE0905902F0907B
:103140005A028091F0029091F102E816F90609F610
:10315000C0915B02D0915C028091F2029091F302E7
:10316000C817D90709F0B5CF69E472E08FE492E09F
:103170000E949B0C80E092E090934802809347026B
:1031800086E0E9E4F2E0A3E5B2E001900D928A95D1
:10319000E1F786E0EEE0F5E0A9E4B2E001900D92FF
:1031A0008A95E1F786E0EEE0F5E0A9E3B2E0019070
:1031B0000D928A95E1F786E0E3E5F2E0A3E3B2E061
:1031C00001900D928A95E1F780914F029091500203
:1031D00090935A0280935902809151029091520229
:1031E00090935C0280935B02F0925002E0924F0257
:1031F000D0935202C0935102D0924002C0923F023B
:103200008AE290E090932C0280932B0262CFEC8DA7
:10321000FD8D309709F400CF86859785A089B18907
:10322000A7019601281B390B4A0B5B0BDA01C90178
:10323000B7FDF2CE83E00E940B100E944901E0919D
:103240002302F0912402048CF58DE02D665F7F4F00
:103250008F4F9F4F66877787808B918BD3CECF938D
:10326000DF93EC010E940A1789890E946202198A81
:10327000DF91CF9108950F931F93CF93DF931F9208
:10328000CDB7DEB78C010E940A17F8018189882327
:1032900089F041E050E0BE016F5F7F4F0E9426033E
:1032A000019741F4898190E00F90DF91CF911F91B8
:1032B0000F9108958FEF9FEFF7CFEF92FF920F934B
:1032C0001F93CF93DF937C018B01EA010E940A17C1
:1032D000F7018189882369F1AE01B8010E942603B4
:1032E0008C01F701C1898C2F0E94820280179107FF
:1032F00069F48C2F0E946202F701118AC801DF91E4
:10330000CF911F910F91FF90EF90089585E0C89F96
:10331000F0011124E450FC4F80819181800F911FB6
:103320009183808382819381801B910B938382831D
:10333000E5CF80E090E0E3CFCF93DF93EC010E94F4
:103340000A178989DF91CF910C948202CF93DF9382
:10335000EC010E940A17898981110E946202888902
:10336000898B188ADF91CF910C948202CF92DF92E1
:10337000EF92FF920F931F93CF93DF9300D000D073
:10338000CDB7DEB78C017B016A010E940A17D70115
:1033900012968C91129781110EC013968C911397EF
:1033A000811109C014968C911497811104C015964F
:1033B0008C918823E9F0C114D104D1F0D8011C9676
:1033C000ED91FC91D70112962D913C9113973A8380
:1033D000298314968D919C919C838B837C2D6D2DDC
:1033E000309779F177836683318320839383828357
:1033F000F80184859585892BB1F18289811133C0CB
:103400008EE096E00E943604D80152968C93529733
:103410002BE230E01F963C932E931E9721E090E024
:10342000811101C020E0822F0F900F900F900F901C
:10343000DF91CF911F910F91FF90EF90DF90CF9090
:103440000895CE0101960E94F20AF80195878487BB
:10345000009749F09801225F3F4FDC011A963C9398
:103460002E931997C5CF80E090E0DECF4F925F9208
:103470006F927F928F929F92AF92BF92CF92DF9284
:10348000EF92FF920F931F93CF93DF93CDB7DEB7E9
:1034900063970FB6F894DEBF0FBECDBF6C017B0102
:1034A0003A01FB01DB018D91882309F444C08E327F
:1034B000D1F380538A30B8F3F6014281538164819D
:1034C00075818091280690912906A0912A06B091D5
:1034D0002B06481759076A077B0709F455C286016E
:1034E000085F1F4F0E9449016F7077277C5FC801FA
:1034F0000E945C0B813009F04CC283E891E09A8312
:103500008983F60182819381A481B5818B839C8319
:10351000AD83BE8345E350E0BE016F5F7F4FC801BE
:103520000E94B619892B09F057C0F12CE12CC80173
:103530000E94810B39C030E020E090E080E05AE04A
:103540004191442309F1843091050CF0B5CF4E32FE
:1035500071F42F3F310511F00CF0AECFD301A80F5D
:10356000B91F12962C93019630E020E0E9CF529FCC
:10357000B001539F700D1124242F440F330B20539F
:103580003109260F371FDCCF2F3F310511F00CF02A
:1035900093CF843091050CF08FCF680E791EF30124
:1035A0002283EE24E394F12CC70163960FB6F894BE
:1035B000DEBF0FBECDBFDF91CF911F910F91FF9066
:1035C000EF90DF90CF90BF90AF909F908F907F90C3
:1035D0006F905F904F9008950E944901F6017783A4
:1035E000668342E050E0B6016A5F7F4FC8010E94E7
:1035F0009A0581E090E09A83898342E050E0BE0121
:103600006F5F7F4FC8010E949A0580E091E09A8326
:10361000898342E050E0BE016F5F7F4FC8010E9486
:103620009A051A82198242E050E0BE016F5F7F4F17
:10363000C8010E949A0542E050E0BE016F5F7F4FD3
:10364000C8010E949A0542E050E0BE016F5F7F4FC3
:10365000C8010E949A055701F7018081882301F172
:103660007501F70181912F01882311F08E32B1F499
:1036700047018A189B081814190474F48D8641E0D8
:1036800050E0BE01635F7F4FC8010E949A05A4010C
:10369000B501C8010E949A055201DECF7201E1CF47
:1036A0001D8641E050E0BE01635F7F4FC8010E946C
:1036B0009A05E12CFF24F394FA82E98242E050E07B
:1036C000BE016F5F7F4FC8010E949A05FA82E982AE
:1036D00042E050E0BE016F5F7F4FC8010E949A0533
:1036E000C8010E94D916892B09F41FCFA3E0AA2E86
:1036F000B12C230122E0420E511C26C0F60162804B
:10370000738084809580B801CE0101960E94570590
:103710008B819C81AD81BE81681679068A069B06E5
:1037200029F4C8010E944805C59759F1FEEFEF2E14
:10373000FF24FA94E1E0AE1AB10809F4F8CEFFEFE5
:10374000EF16FF0609F0F3CE0E9449013B014C0140
:10375000C8010E94A6191816190684F20E94490190
:1037600066197709880999096938734181059105B6
:1037700008F001C162E370E080E090E00E94170170
:10378000E7CFC8010E949C190C970CF4F8C04CE0DC
:1037900050E0BE016F5F7F4FC8010E94DE088B8141
:1037A0009C819827892798279A8B898BF6014681D7
:1037B000578129813A814217530711F497FD08C0B8
:1037C000C8010E942F19ECEFEE2EFF24FA94B2CF1D
:1037D0008F709270892B41F0C8010E942F197BEFE6
:1037E000E72EFF24FA94A6CF6F807884762467248E
:1037F0007624F12CE12C61147104D1F4C8010E94EB
:103800002F196AEFE62EFF24FA9494CF8D8581114B
:1038100017C0C8010E947D05C8010E947D05C8012E
:103820000E947D05C8010E947D05FFEFEF1AFF0A87
:103830008D819E81982789279827E816F906A8F494
:1038400041E050E0BE01635F7F4FC8010E94DE0887
:103850008D858823D9F28D859FEF980F9D878823CA
:10386000A9F2C8010E947D05F6CF912C812C41E080
:1038700050E0BE016D5E7F4FC8010E94DE088B895B
:10388000982F907C61F4882389F08B899FEF980FA3
:103890009B8B882341F0C8010E947D05F6CFC801AB
:1038A0000E947D051B8A8B898111E1CF42E050E0A7
:1038B000BE01615F7F4FC8010E94DE0842E050E018
:1038C000BE01635F7F4FC8010E94DE08C8010E94ED
:1038D0007D05C8010E947D05C8010E947D05C801C3
:1038E0000E947D0542E050E0BE016F5E7F4FC8013F
:1038F0000E94DE088F85988981159140E1F48D85BD
:103900009E8581159140B9F489899A8981159440E1
:1039100041F0C8010E942F1957EFE52EFF24FA94B9
:1039200009CF44E050E0B201C8010E94DE08EE2455
:10393000E394F12CFFCEF12CE12C89899A89982708
:1039400089279827E816F90638F4C8010E947D05F2
:103950002FEFE21AF20AF1CF8FEF881A980A861435
:10396000970409F084CFC8010E942F1936EFE32E87
:10397000FF24FA94DFCEEE24EA94FE2CDBCE9DEFFA
:10398000E92EFF24FA94D6CE8EEFE82EFF24FA9487
:103990000BCEF12CE12C08CEAF92BF92CF92DF92EA
:1039A000EF92FF920F931F93CF93DF93CDB7DEB7C4
:1039B000A8970FB6F894DEBF0FBECDBF7C015B01A8
:1039C0006A0103E811E01A8309831B821C821D82AD
:1039D0001E82CE0109960E94A20B1CA30BA31DA25E
:1039E0001EA21FA218A68091160690911706A091FC
:1039F0001806B09119068F8F98A3A9A3BAA38B8339
:103A00009C83AD83BE8318861F82AE014D5D5F4FE0
:103A1000B501CE0101960E94361A81309105B1F4AC
:103A2000D701ED91FC910488F589E02D1E8F0D8F53
:103A30008DA19EA1AFA1B8A58F8F98A3A9A3BAA36A
:103A4000A601BE01635E7F4FC7010995A8960FB618
:103A5000F894DEBF0FBECDBFDF91CF911F910F91C4
:103A6000FF90EF90DF90CF90BF90AF900895AF920E
:103A7000BF92CF92DF92EF92FF920F931F93CF935B
:103A8000DF93CDB7DEB7A8970FB6F894DEBF0FBEB1
:103A9000CDBF7C015B016A0103E811E01A83098351
:103AA0001B821C821D821E82CE0109960E94A20BDF
:103AB0001CA30BA31DA21EA21FA218A6809116066E
:103AC00090911706A0911806B09119068B839C83DC
:103AD000AD83BE8318861F82AE014D5D5F4FB50179
:103AE000CE0101960E94361A81309105B1F4D701BA
:103AF000ED91FC910684F785E02D1E8F0D8F8DA131
:103B00009EA1AFA1B8A58F8F98A3A9A3BAA3A60120
:103B1000BE01635E7F4FC7010995A8960FB6F89462
:103B2000DEBF0FBECDBFDF91CF911F910F91FF90F0
:103B3000EF90DF90CF90BF90AF900895CF93DF9339
:103B4000EC014C815D81A3EFB3E090E080E0282F91
:103B50008430910521F484E08093FB030EC0FC01C6
:103B60006D917D910196672B91F72093FB03EE0FEA
:103B7000FF1FED50FC4F518340830E940A1781E0E4
:103B80008E83DF91CF910895CF93DF93EC010E9454
:103B90000A17EC85FD8587818823D9F0DF01189607
:103BA00021E08D91811110C0215030E0322F222769
:103BB000330F84859585280F391F80E09AE0821B9A
:103BC000930BDF91CF9108952F5F253051F724E0BB
:103BD000ECCF80E09AE0F5CFAF92BF92CF92DF9228
:103BE000EF92FF920F931F93CF938C015B017A01A9
:103BF0006A010E940A170115110509F45DC0F80158
:103C00008181882309F458C0867009F055C0389620
:103C1000C1E08191811133C0C150F801EC0FF11D59
:103C2000878181110DC080E092E00E943604F80186
:103C3000EC0FF11D87838823E1F2F80115861486C5
:103C4000A7014C195D094A0D5B1DF8016485758556
:103C50009601EC0FF11D87810E940605C81AD90A4A
:103C6000F80124853585820F931F958784871C145E
:103C70001D0454F4C43009F4BCCFCF5FD4CFCF5F60
:103C8000C53039F6C4E0C9CF0E944901665F7F4F55
:103C90008F4F9F4FF80166877787808B918BC70185
:103CA0008C199D09CF911F910F91FF90EF90DF909C
:103CB000CF90BF90AF90089590E080E0F3CF9F92B7
:103CC000AF92BF92CF92DF92EF92FF920F931F932A
:103CD000CF93DF938C017B016A01C7E9D2E0B12C5D
:103CE000A12C8EE1982E898180FF15C0E8819E9ECF
:103CF000F0011124E558FC4F24813581F8018481BD
:103D000095812817390739F4A601B701CE010E9421
:103D1000EC1DA80EB91E6296F2E0CF3DDF0718F346
:103D2000C501DF91CF911F910F91FF90EF90DF9030
:103D3000CF90BF90AF909F900895FC0184859585AA
:103D40000C94EC1DCF93DF931F92CDB7DEB7698340
:103D500041E050E0BE016F5F7F4FFC018485958597
:103D60000E94EC1D0F90DF91CF910895CF93DF93C8
:103D7000EC010E940A17EC85FD85309739F08181AE
:103D800082FF08C081E09281911101C080E0DF9143
:103D9000CF91089581E0FBCFCF93DF93EC018C8529
:103DA0009D85009769F0FC012181222349F002964C
:103DB0000E943A07EC85FD85818182FF07C0118250
:103DC0001D861C86DF91CF910C940A178260818337
:103DD000F7CFCF92DF92EF92FF920F931F93CF9383
:103DE000DF938C01EB016A01DC01ED91FC91048809
:103DF000F589E02D0995EA80FB806C817D815C2D41
:103E00004D2D8091790390917A0301968115BDE73C
:103E10009B0710F080E090E1382F292FEBE7F3E0CB
:103E2000DF01C0E0C430D1F490937A03809379032A
:103E30001092FB0380E0D0E0C0E08430F1F4809386
:103E4000FB03209711F590E080E0DF91CF911F9167
:103E50000F91FF90EF90DF90CF9008955996DC91ED
:103E60005997DD2339F01496CD90DC901597C21642
:103E7000D30659F2CF5F5E96D5CFAE2F9F2FB18D6F
:103E8000B1113CC08093FB03EF0182E0898F8091E8
:103E90001E028C8780911F028D87809120028E8761
:103EA000809121028F8780E092E09B8B8A8B9D8B93
:103EB0008C8B81E090E0998B888B1B8E8A8F83E0BE
:103EC000888F1E8A80E18F8B3D832C835F834E8396
:103ED000F982E8827B836A83898D8F7009F4B3CF7E
:103EE0000E940A17898D8F708330B1F78C8D9D8D5C
:103EF000F8019587848781E090E0A7CFB73031F44F
:103F0000209731F0D28CBA8DBD1510F0AC2F9D2FBB
:103F10008F5F7E96CA2FD92F90CF1F920F920FB628
:103F20000F9211242F933F938F939F93AF93BF933F
:103F30008091E0029091E102A091E202B091E3024F
:103F40003091DF0223E0230F2D3758F50196A11D94
:103F5000B11D2093DF028093E0029093E102A093D1
:103F6000E202B093E3028091E4029091E502A09115
:103F7000E602B091E7020196A11DB11D8093E40213
:103F80009093E502A093E602B093E702BF91AF9150
:103F90009F918F913F912F910F900FBE0F901F9087
:103FA000189526E8230F0296A11DB11DD2CF1F92AE
:103FB0000F920FB60F9211242F933F934F935F935D
:103FC0006F937F938F939F93AF93BF93EF93FF93E1
:103FD00088E195E00E94D301FF91EF91BF91AF91ED
:103FE0009F918F917F916F915F914F913F912F9111
:103FF0000F900FBE0F901F9018951F920F920FB643
:104000000F9211242F938F939F93EF93FF93E0913F
:104010002805F09129058081E0912E05F0912F056A
:1040200082FD1BC09081809131058F5F8F7320913D
:104030003205821741F0E0913105F0E0E85EFA4F79
:10404000958F80933105FF91EF919F918F912F91E3
:104050000F900FBE0F901F9018958081F4CFFC0138
:104060003381360F30931902A72FBB2792819A0F05
:1040700090931802218120931702408140931602E9
:104080009A171B0648F481E0820F80931702811172
:1040900003C04F5F4093160277273617170688F440
:1040A0009F5F9093180291110CC0809117028F5F4F
:1040B00080931702811105C0809116028F5F809353
:1040C00016020895CF93DF93C0912302D09124026A
:1040D000BC01CE0108960E942F20E6E1F2E080812B
:1040E00088878181898782818A8783818B87DF9115
:1040F000CF910895CF93DF93E8E1F5E01382128228
:1041000088EE93E0A0E0B0E084839583A683B78334
:1041100081E691E09183808385EC90E095878487A8
:1041200084EC90E09787868780EC90E0918B808B81
:1041300081EC90E0938B828B82EC90E0958B848B6A
:1041400086EC90E0978B868B118E128E138E148ED8
:10415000E5EBF5E0C3E8D1E0D183C083128213829E
:1041600014821582EBEBF5E0D183C08312821382B7
:1041700014821582EAE1F6E0D183C08312821382B1
:1041800014821582E4E1F6E0D183C08312821382A7
:104190001482158280E096E00E94A20BE0E2F6E035
:1041A000D183C0831282138214821582E6E2F6E084
:1041B000D183C0831282138214821582ECE2F6E06E
:1041C000D183C0831282138214821582EFE3F6E05A
:1041D000D183C0831282138214821582E9E3F6E050
:1041E000D183C08380EC828388EA838381E08483E7
:1041F00081EB8583E2E3F6E01382128283E791E0AC
:104200009183808380E090E5958384831682DF919B
:10421000CF910895CF93DF93CDB7DEB766970FB6F2
:10422000F894DEBF0FBECDBF789484B5826084BDA4
:1042300084B5816084BD85B5826085BD85B58160AA
:1042400085BD80916E00816080936E001092810028
:1042500080918100826080938100809181008160E3
:1042600080938100809180008160809380008091A4
:10427000B10084608093B1008091B0008160809330
:10428000B00080917A00846080937A0080917A00F7
:10429000826080937A0080917A00816080937A00B6
:1042A00080917A00806880937A001092C10003E8C0
:1042B00011E01A83098380913B0690913C06A091FE
:1042C0003D06B0913E068B839C83AD83BE83CE01B9
:1042D00001960E94E50882E396E00E949E1DE0910F
:1042E0002805F091290582E08083E0912405F09172
:1042F00025051082E0912605F09127058FEC80833B
:1043000010923005E0912C05F0912D0586E0808318
:10431000E0912A05F0912B05808180618083E091F6
:104320002A05F0912B05808188608083E0912A0521
:10433000F0912B05808180688083E0912A05F091BF
:104340002B0580818F7D808368E871E088E195E0AE
:104350000E94BA0B3091F0022091F1029091F2028A
:104360008091F3021A8309833B832C839D838E8380
:1043700068E175E0CE0101960E94150C65E871E0D8
:1043800088E195E00E94BA0B80E0282E80E0382E6C
:104390000FE311E00E940A178091360690913706CC
:1043A000E7E9F2E02281222309F46EC0218120FF97
:1043B0000DC0A0813EE13A9FD0011124A558BC4F09
:1043C00014964D915C914817590741F022FF5CC04B
:1043D000278130858217930709F056C01C821B8203
:1043E00088EE93E0A0E0B0E08D839E83AF83B88732
:1043F0001A830983FE87ED87CE0101960E94B61EBF
:10440000882309F4F6C0188A1F861A8A198A1C8A1A
:104410001B8A70E060E0CE010F960E94730C2F851E
:104420003889811146C02115310519F0C9010E9452
:104430004A26188A1F861C8A1B8A1A8A198ACE0164
:1044400001960E94BE0797FD3CC08D309105C9F1D1
:104450008D8B1E8AEB88FC889FEFE91AF90AB70159
:10446000CE010F960E94730C882349F32F8538895B
:104470008B899C89BE016B5E7F4F820F931F0E94C8
:10448000A027FC8AEB8ADBCF7296A2E0EF3DFA0709
:1044900008F488CF1C821B8288EE93E0A0E0B0E095
:1044A0008D839E83AF83B8871A8309831E861D86FA
:1044B000A3CF1C8A1B8A67E871E0C9010E94A0276C
:1044C000BECFCE0101960E946207A0E4A0937C00BB
:1044D00080917A00806480937A0080917A0086FDD2
:1044E000FCCF6091780070917900072E000C880B4A
:1044F000990B0E948C2320E030E040EA5BE30E94AD
:10450000EB2320E030E048EC52E40E94EB236B0107
:104510007C014B015C016AE971E0CE0101960E94C9
:104520005F0C6AEA71E0CE0101960E945F0C62ECBA
:1045300071E0CE0101960E945F0C65E871E0CE014A
:1045400001960E94BA0B64ED71E0CE0101960E94C3
:104550005F0C64EE71E0CE0101960E945F0C6BEE81
:1045600071E0CE0101960E94BA0BA7019601C70126
:10457000B6010E94A32569EF71E081111AC02601DE
:104580003701E89477F82FEF3FEF4FE75FE7C3017C
:10459000B2010E94A325811138C02FEF3FEF4FE7F2
:1045A0005FE7C301B2010E948523181674F56DEF11
:1045B00071E0CE0101960E94BA0B65E072E0CE0177
:1045C00001960E945F0C68E072E0CE0101960E94A5
:1045D0005F0C61E070E080E090E00E941701CE0186
:1045E00001960E94CC1E8F859889009711F00E9439
:1045F0004A262114310409F4CDCE0E94BF0188233C
:1046000009F4C8CE0E940000C5CE2FEF3FEF4FE760
:104610005FE4C701B6010E949E2518161CF461E0F4
:1046200072E0C7CF2FEF3FEF4FE75FECC701B60156
:104630000E94852387FDF3CF20E030E0A901C70168
:10464000B6010E94852387FF0BC06DE2CE01019663
:104650000E94A21E46015701B7FAB094B7F8B09471
:104660002AE037ED43EA5BE3C501B4010E9403256C
:104670004B015C010E946F256B017C010E948A2323
:104680009B01AC01C501B4010E9402254B015C01F4
:104690002AE0B701A601CE0101960E94C90B6EE285
:1046A000CE0101960E94A21E20E030E040E251E4DB
:1046B000C501B4010E94EB234B015C010E946F25F0
:1046C0006B01F12CE12C2AE0B701A601CE01019685
:1046D0000E94C90BC701B6010E948A239B01AC014D
:1046E000C501B4010E94022520E030E040E251E41F
:1046F0000E94EB230E946F25AB0170E060E02AE08E
:10470000CE0101960E94C90B58CF0E94C72308F41E
:1047100081E00895E89409C097FB3EF49095809558
:10472000709561957F4F8F4F9F4F9923A9F0F92F77
:1047300096E9BB279395F695879577956795B795F5
:10474000F111F8CFFAF4BB0F11F460FF1BC06F5FDB
:104750007F4F8F4F9F4F16C0882311F096E911C0ED
:10476000772321F09EE8872F762F05C0662371F00E
:1047700096E8862F70E060E02AF09A95660F771F22
:10478000881FDAF7880F9695879597F90895990FFE
:104790000008550FAA0BE0E8FEEF16161706E8070B
:1047A000F907C0F012161306E407F50798F0621B2C
:1047B000730B840B950B39F40A2661F0232B242B01
:1047C000252B21F408950A2609F4A140A6958FEF20
:1047D000811D811D08950E94FE230C946F240E9468
:1047E000612438F00E94682420F0952311F00C9485
:1047F00058240C945E2411240C94A3240E94802439
:1048000070F3959FC1F3950F50E0551F629FF00123
:10481000729FBB27F00DB11D639FAA27F00DB11D3C
:10482000AA1F649F6627B00DA11D661F829F2227C5
:10483000B00DA11D621F739FB00DA11D621F839F4C
:10484000A00D611D221F749F3327A00D611D231F22
:10485000849F600D211D822F762F6A2F11249F5770
:1048600050409AF0F1F088234AF0EE0FFF1FBB1F73
:10487000661F771F881F91505040A9F79E3F510532
:1048800080F00C9458240C94A3245F3FE4F3983EEA
:10489000D4F3869577956795B795F795E7959F5FDC
:1048A000C1F7FE2B880F911D9695879597F908956E
:1048B00097F99F6780E870E060E008959FEF80ECD3
:1048C000089500240A941616170618060906089576
:1048D00000240A9412161306140605060895092EDC
:1048E0000394000C11F4882352F0BB0F40F4BF2B4B
:1048F00011F460FF04C06F5F7F4F8F4F9F4F08958B
:1049000057FD9058440F551F59F05F3F71F0479580
:10491000880F97FB991F61F09F3F79F08795089565
:10492000121613061406551FF2CF4695F1DF08C084
:10493000161617061806991FF1CF869571056105A1
:1049400008940895E894BB2766277727CB0197F949
:1049500008952F923F924F925F926F927F928F9223
:104960009F92AF92BF92CF92DF92EF92FF920F93FE
:104970001F93CF93DF93CDB7DEB7CA1BDB0B0FB608
:10498000F894DEBF0FBECDBF09942A8839884888C5
:104990005F846E847D848C849B84AA84B984C8845B
:1049A000DF80EE80FD800C811B81AA81B981CE0F52
:1049B000D11D0FB6F894DEBF0FBECDBFED01089537
:1049C000A1E21A2EAA1BBB1BFD010DC0AA1FBB1F13
:1049D000EE1FFF1FA217B307E407F50720F0A21B85
:1049E000B30BE40BF50B661F771F881F991F1A94F2
:1049F00069F760957095809590959B01AC01BD011C
:104A0000CF0108955058BB27AA270E941A250C945D
:104A10006F240E94612438F00E94682420F039F449
:104A20009F3F19F426F40C945E240EF4E095E7FB06
:104A30000C945824E92F0E94802458F3BA17620777
:104A400073078407950720F079F4A6F50C94A22447
:104A50000EF4E0950B2EBA2FA02D0B01B901900199
:104A60000C01CA01A0011124FF27591B99F0593FDD
:104A700050F4503E68F11A16F040A22F232F342F25
:104A80004427585FF3CF469537952795A795F04073
:104A90005395C9F77EF41F16BA0B620B730B840B88
:104AA000BAF09150A1F0FF0FBB1F661F771F881F40
:104AB000C2F70EC0BA0F621F731F841F48F4879598
:104AC00077956795B795F7959E3F08F0B0CF93958A
:104AD000880F08F09927EE0F9795879508950E9403
:104AE000882488F09F5798F0B92F9927B751B0F0D4
:104AF000E1F0660F771F881F991F1AF0BA95C9F762
:104B000014C0B13091F00E94A224B1E008950C9439
:104B1000A224672F782F8827B85F39F0B93FCCF3EC
:104B2000869577956795B395D9F73EF490958095DE
:104B3000709561957F4F8F4F9F4F08950E94C723B7
:104B400008F48FEF08950E94C723880B990B0895EE
:104B5000EE0FFF1F0590F491E02D09940F931F9322
:104B6000CF93DF938230910510F482E090E0E091E2
:104B70004706F091480630E020E0B0E0A0E0309732
:104B800099F42115310509F44AC0281B390B24304A
:104B90003105D8F58A819B816115710589F1FB0189
:104BA00093838283FE0111C0408151810281138170
:104BB00048175907E0F04817590799F4109761F022
:104BC00012960C93129713961C933296CF01DF9195
:104BD000CF911F910F9108950093470610934806B7
:104BE000F4CF2115310551F04217530738F0A901D0
:104BF000DB019A01BD01DF01F801C1CFEF01F9CF5F
:104C00009093480680934706CDCFFE01E20FF31F35
:104C1000819391932250310939832883D7CF2091F2
:104C2000450630914606232B41F42091090130912D
:104C30000A013093460620934506209107013091E2
:104C400008012115310541F42DB73EB740910B0104
:104C500050910C01241B350BE0914506F09146065E
:104C6000E217F307A0F42E1B3F0B2817390778F043
:104C7000AC014E5F5F4F2417350748F04E0F5F1FA2
:104C80005093460640934506819391939FCFF0E061
:104C9000E0E09CCFCF93DF930097E9F0FC013297DF
:104CA00013821282A0914706B0914806ED0130E0D0
:104CB00020E01097A1F420813181820F931F209171
:104CC0004506309146062817390709F061C0F09370
:104CD0004606E0934506DF91CF910895EA01CE178D
:104CE000DF07E8F54A815B819E0141155105B1F767
:104CF000E901FB83EA8349915991C40FD51FEC1751
:104D0000FD0761F4808191810296840F951FE9016E
:104D100099838883828193819B838A83F0E0E0E09A
:104D200012968D919C9113970097B9F52D913C9116
:104D30001197CD010296820F931F20914506309165
:104D400046062817390739F6309751F5109248066C
:104D500010924706B0934606A0934506BCCFD38376
:104D6000C28340815181840F951FC817D90761F410
:104D70004E5F5F4F88819981480F591F518340834F
:104D80008A819B81938382832115310509F0B0CFFD
:104D9000F0934806E09347069ECFFD01DC01C0CFAB
:104DA00013821282D7CFB0E0A0E0E9EDF6E20C94D6
:104DB000AB248C01009751F4CB010E94AE258C01ED
:104DC000C801CDB7DEB7E0E10C94C724FC01E60FC3
:104DD000F71F9C0122503109E217F30708F49DC028
:104DE000D901CD91DC911197C617D70798F0C5303E
:104DF000D10530F3CE0104978617970708F3C61B39
:104E0000D70B2297C193D1936D937C93CF010E94CE
:104E10004A26D6CF5B01AC1ABD0A4C018C0E9D1EF2
:104E2000A0914706B0914806512C412CF12CE12C61
:104E3000109731F5809145069091460688159905A1
:104E400009F05CC04616570608F058C0809107016B
:104E500090910801009741F48DB79EB740910B01E6
:104E600050910C01841B950BE817F90708F055C009
:104E7000F0934606E0934506F90171836083A0CF65
:104E80008D919C91119712966C90129713967C902D
:104E90001397A815B90559F56C0142E0C40ED11C51
:104EA000CA14DB0420F1AC014A195B09DA0112963D
:104EB000159780F06282738251834083D9016D938C
:104EC0007C93E114F10471F0D7011396FC93EE93F7
:104ED000129776CF22968C0F9D1FF90191838083C4
:104EE000F301EFCFF0934806E093470669CF4816E9
:104EF000590608F42C017D01D3019ACFCB010E9401
:104F0000AE257C01009749F0AE01B8010E949027C0
:104F1000C8010E944A26870153CF10E000E050CF1D
:104F2000FB01DC0102C001900D9241505040D8F7C6
:104F30000895DC0101C06D9341505040E0F70895A1
:104F4000FB01DC0101900D920020E1F70895F89437
:024F5000FFCF91
:104F5200FFDEADBEEFFEED0000490680000000005E
:104F620000B2059A05EF052F199C197D053B195CC6
:104F72000BC805810BB619CC1CD916A6195D19DE12
:104F82000857054805FFFFFFFFFFFF00000000A2D2
:104F92001E9D1EC41D62078408A1077707E91E37FC
:104FA2001DE807CC1EC408B61EB208D408000000D3
:104FB20000F501550182014202B3019101A50100F0
:104FC200000000CA055F1EEF05EE059E1DE005000C
:104FD200000000150C0D0A0053657276657220629E
:104FE20065726164612064692000485454502F3115
:104FF2002E3120323030204F4B00436F6E74656E7D
:10500200742D547970653A20746578742F68746DC4
:105012006C00436F6E6E656374696F6E3A20636CE9
:105022006F7365003C21444F435459504520485406
:105032004D4C3E003C68746D6C3E0054656D70656D
:105042007261747572653A20006E616E00696E66F7
:10505200006F7666002043003C2F68746D6C3E0042
:00000001FF
